:020000040800F2
:100000000000082499400008A93D0008AF3D000801
:10001000B53D0008BB3D0008C13D000800000000E0
:10002000000000000000000000000000C73D0008C4
:10003000D53D000800000000E33D0008F13D000848
:10004000E9400008E9400008E9400008E9400008EC
:10005000E9400008E9400008E9400008E9400008DC
:10006000E9400008E9400008E9400008E9400008CC
:10007000E9400008E9400008E9400008E9400008BC
:10008000E9400008E9400008E9400008E9400008AC
:10009000E9400008E9400008E9400008E94000089C
:1000A000E9400008E9400008E9400008E94000088C
:1000B000E9400008E9400008E9400008E94000087C
:1000C000E9400008E9400008E9400008E94000086C
:1000D000E9400008E9400008E9400008E94000085C
:1000E000E9400008E940000800000000E94000087D
:1000F000E9400008E9400008E9400008E94000083C
:10010000E9400008E9400008E9400008E94000082B
:10011000E9400008E9400008E9400008E94000081B
:10012000E9400008E9400008E9400008E94000080B
:10013000E9400008E9400008E9400008E9400008FB
:1001400000000000000000000000000000000000AF
:10015000E9400008E9400008E9400008E9400008DB
:10016000E9400008E9400008E9400008E9400008CB
:10017000E9400008E9400008E940000800000000EC
:10018000E9400008E9400008E9400008E9400008AB
:10019000E9400008E9400008E9400008E94000089B
:1001A000E9400008E9400008E9400008E94000088B
:1001B000E9400008E9400008E9400008E94000087B
:1001C000E9400008E9400008E9400008E94000086B
:1001D000E9400008E9400008E9400008E94000085B
:1001E000E9400008E9400008E9400008E94000084B
:1001F000E9400008E9400008E9400008E94000083B
:10020000E9400008E9400008E9400008E94000082A
:10021000E9400008E9400008E9400008E94000081A
:10022000E9400008E9400008E9400008000000003B
:10023000E9400008E940000800000000E94000082B
:10024000E9400008E9400008E9400008E9400008EA
:10025000E9400008E9400008E9400008E9400008DA
:10026000E9400008E9400008E9400008E9400008CA
:10027000E9400008E9400008E940000800000000EB
:10028000E9400008E9400008E940000800000000DB
:0802900000000000E940000835
:1002A00010B5054C237833B9044B13B10448AFF3B0
:1002B00000800123237010BD2006002400000000F0
:1002C0002CB5000808B5034B1BB103490348AFF335
:1002D000008008BD00000000240600242CB50008A2
:1002E00001F0FF01102A2BDB10F0070F08D010F8E7
:1002F000013B013A8B422DD010F0070F42B3F6D1EB
:10030000F0B441EA012141EA014122F007047FF003
:1003100000070023F0E80256083C85EA010586EA5A
:10032000010685FA47F5A3FA87F586FA47F6A5FA96
:1003300087F68EB9EED1F0BC01F0FF0102F00702A2
:1003400032B110F8013B013A83EA010313B1F8D14D
:100350000020704701387047002D06BF354603382E
:10036000073815F0010F07D1013015F4807F02BF67
:10037000013015F4C03F0130F0BC0138704700BFB8
:1003800053B94AB9002908BF00281CBF4FF0FF31FC
:100390004FF0FF3000F074B9ADF1080C6DE904CEF8
:1003A00000F006F8DDF804E0DDE9022304B0704750
:1003B0002DE9F047089D04468E46002B4DD18A4218
:1003C000944669D9B2FA82F252B101FA02F3C2F14B
:1003D000200120FA01F10CFA02FC41EA030E9440DC
:1003E0004FEA1C48210CBEFBF8F61FFA8CF708FBFD
:1003F00016E341EA034306FB07F199420AD91CEBD5
:10040000030306F1FF3080F01F81994240F21C8106
:10041000023E63445B1AA4B2B3FBF8F008FB10334E
:1004200044EA034400FB07F7A7420AD91CEB040483
:1004300000F1FF3380F00A81A74240F20781644453
:10044000023840EA0640E41B00261DB1D4400023D8
:10045000C5E900433146BDE8F0878B4209D9002D3C
:1004600000F0EF800026C5E9000130463146BDE8C6
:10047000F087B3FA83F6002E4AD18B4202D3824230
:1004800000F2F980841A61EB030301209E46002DDF
:10049000E0D0C5E9004EDDE702B9FFDEB2FA82F234
:1004A000002A40F09280A1EB0C014FEA1C471FFA92
:1004B0008CFE0126200CB1FBF7F307FB131140EA79
:1004C00001410EFB03F0884208D91CEB010103F146
:1004D000FF3802D2884200F2CB804346091AA4B208
:1004E000B1FBF7F007FB101144EA01440EFB00FEDC
:1004F000A64508D91CEB040400F1FF3102D2A64541
:1005000000F2BB800846A4EB0E0440EA03409CE7DF
:10051000C6F12007B34022FA07FC4CEA030C20FA8C
:1005200007F401FA06F31C43F9404FEA1C4900FAAC
:1005300006F3B1FBF9F8200C1FFA8CFE09FB181129
:1005400040EA014108FB0EF0884202FA06F20BD99C
:100550001CEB010108F1FF3A80F08880884240F2EC
:100560008580A8F102086144091AA4B2B1FBF9F030
:1005700009FB101144EA014100FB0EFE8E4508D92B
:100580001CEB010100F1FF346CD28E456AD90238B0
:10059000614440EA0840A0FB0294A1EB0E01A14295
:1005A000C846A64656D353D05DB1B3EB080261EB03
:1005B0000E0101FA07F722FA06F3F1401F43C5E9DD
:1005C000007100263146BDE8F087C2F12003D84013
:1005D0000CFA02FC21FA03F3914001434FEA1C4755
:1005E0001FFA8CFEB3FBF7F007FB10360B0C43EA47
:1005F000064300FB0EF69E4204FA02F408D91CEBF7
:10060000030300F1FF382FD29E422DD902386344F4
:100610009B1B89B2B3FBF7F607FB163341EA034194
:1006200006FB0EF38B4208D91CEB010106F1FF38E3
:1006300016D28B4214D9023E6144C91A46EA0046DA
:1006400038E72E46284605E70646E3E61846F8E66C
:100650004B45A9D2B9EB020864EB0C0E0138A3E7B5
:100660004646EAE7204694E74046D1E7D0467BE796
:10067000023B614432E7304609E76444023842E70E
:10068000704700BF80B586B000AFF860B9607A608F
:10069000FB681B68002B07D0FB681B68083B1B68C6
:1006A0005A00BB68134401E0BB6801337B61FB68FF
:1006B0001B68002B03D0FB681B68083B00E000238D
:1006C0007A68796901FB02F20832114618460AF08D
:1006D0009FFB38613B69002B06D1114B114A40F258
:1006E0003E31114809F06CFC3B69002B11D0FB68CE
:1006F0001B68002B03D13B69043300221A603B695D
:1007000003F10802FB681A60FB681B68083B7A6902
:100710001A60FB681B6818461837BD4680BD00BFCD
:1007200044BE00088C8501082CBD000890B585B03A
:1007300000AFF860B9607A602AE0FB68002B08D04F
:10074000FB68043B1B685A1CFB68083B1B689A4209
:1007500007DB07F10C03012201211846FFF792FF86
:1007600000BFBB681C68F968FB68043B1A68501C32
:10077000186013460B44E2B21A70BB681B681A0A71
:10078000BB681A607B681B68A3F108027B681A606B
:100790007B681B68072BD0DCFB6818461437BD4606
:1007A00090BD80B485B000AF786039600023FB60F5
:1007B00009E0FB685A007B6803F001031343FB6008
:1007C0007B685B107B603B685A1E3A60002BF0D15F
:1007D000FB6818461437BD465DF8047B704780B44B
:1007E00087B000AFF860B9607A6000237B610CE0ED
:1007F0007B69FA6813441A787B69B9680B441B78E3
:100800009A420BD17B6901337B617A697B689A429A
:1008100005DA7B69B3F5817FEADB00E000BF7B6925
:1008200018461C37BD465DF8047B704780B485B020
:1008300000AF78607B681B781A467B6801331B78B1
:100840001B021A447B6802331B781B041344FB60B1
:10085000FB68DB00FA685340FB60FB685B09FA68E1
:100860001344FB60FB681B01FA685340FB60FB68A4
:100870005B0CFA681344FB60FB685B06FA68534044
:10088000FB60FB689B09FA681344FB60FB68184631
:100890001437BD465DF8047B7047000090B597B0F3
:1008A00000AFF860B9607A603B600023BB61002351
:1008B0007B6100233B614FF4803009F085FE0346E5
:1008C0007B637B6B002B02D1002300F062BD3B6891
:1008D000042B01DC05233B603B69002B08D03B69FE
:1008E000043B1B685A1C3B69083B1B689A4207DBA8
:1008F00007F11003012201211846FFF7C3FE00BFD4
:1009000039693B69043B1A68501C186013460B4454
:1009100078221A703B69002B08D03B69043B1B68A6
:100920005A1C3B69083B1B689A4207DB07F110031E
:10093000012201211846FFF7A5FE00BF39693B6976
:10094000043B1A68501C186013460B445E221A7050
:100950007B69012202FA03F31A46BB691343BB61A8
:100960007B6901337B613B6907F1140207F11801D0
:100970001846FFF7DBFE03463B617B69012202FA62
:1009800003F31A46BB691343BB617B6902337B6186
:100990003B6907F1140207F118011846FFF7C6FE7C
:1009A00003463B6100237B6508E07B6D9B007A6B0F
:1009B000134400221A607B6D01337B657B6DB3F5B8
:1009C000804FF2DB00237B656EE27B6DFA68134497
:1009D0001846FFF72BFF0346C3F30D033B630323C6
:1009E000FB640023BB643B6B9B007A6B13441B6866
:1009F000FB62FB6A002B03D0FB6A53F8043C00E067
:100A00000023BB6200233B652AE07A6DA34B1344AD
:100A10003A6D9200F96A0A441168FA688A1A934298
:100A20001BDC3B6D9B00FA6A134418687B6DFA6807
:100A3000D118BA687B6DD31A1A46FFF7D0FE034669
:100A4000FB61FA69FB6C9A4207DBFB69FB643B6D57
:100A50009B00FA6A13441B68BB643B6D01333B6522
:100A60003A6DBB6A9A42D0DB3B6B9B007A6B1344B6
:100A70001B68002B24D03B6B9B007A6B13441B68D4
:100A8000043B1A683B685B009A4219D13B6B9B00A0
:100A90007A6B134418683B6B9B007A6B13441A689B
:100AA0003B689B00D1183B689B001A4609F0AAFDE1
:100AB0003B6B9B007A6B13441B68043B3A681A60DB
:100AC0003B6B9B007A6B13441B68002B10D03B6B75
:100AD0009B007A6B13441B68043B1B685A1C3B6BDE
:100AE0009B00796B0B441B68083B1B689A4209DB2F
:100AF0003B6B9B007A6B1344042201211846FFF7DD
:100B0000C1FD00BF796D3B6B9B007A6B1344186885
:100B10003B6B9B007A6B13441B68043B1A68541CA4
:100B20001C6013469B000344FA680A441A60BB6CBD
:100B3000002B48D07B6D0133FA6813441846FFF749
:100B400075FE0346C3F30D033B633B6B9B007A6B5F
:100B500013441B68FB62FB6A002B03D0FB6A53F84B
:100B6000043C00E00023BB6200233B6527E07A6D74
:100B70004B4B13443A6D9200F96A0A441168FA68C3
:100B80008A1A934218DC3B6D9B00FA6A134418687A
:100B90007B6D0133FA68D118BA687B6DD31A013BBB
:100BA0001A46FFF71CFE03467B627A6AFB6C9A4288
:100BB00002DD0023BB6406E03B6D01333B653A6D0B
:100BC000BB6A9A42D3DBBB6C002B00F026817B6DA5
:100BD000FA681A44BB6CD31A3B623B6AB3F5004F08
:100BE00003DAFB6CB3F5817F06DD2E4B2E4A40F213
:100BF000BF312E4809F0E4F900233B6502E03B6D6C
:100C000001333B653B6D0133294A32F813301A46F4
:100C1000FB6C9342F3DA3B6D13F1710F1CDA3B6D01
:100C200003F2311308211846FFF7BBFD02467B692A
:100C300002FA03F31A46BB691343BB617B690833AD
:100C40007B613B6907F1140207F118011846FFF7B1
:100C50006DFD03463B6167E03B6DB3F1FF3F29DA71
:100C60003B6D03F2012309211846FFF79AFD024666
:100C70007B6902FA03F31A46BB691343BB617B69C4
:100C800009337B613B6907F1140207F1180118462B
:100C9000FFF74CFD03463B6146E000BF0180FFFFCC
:100CA0000280FFFF48BE00089C8501082CBD00089B
:100CB000080000243B6D162B1BDC3B6D0133072124
:100CC0001846FFF76EFD02467B6902FA03F31A46E7
:100CD000BB691343BB617B6907337B613B6907F1E8
:100CE000140207F118011846FFF720FD03463B6187
:100CF0001AE03B6DA93308211846FFF752FD024662
:100D00007B6902FA03F31A46BB691343BB617B6933
:100D100008337B613B6907F1140207F1180118469B
:100D2000FFF704FD03463B61A04A3B6D13441B786B
:100D3000002B1FD09E4A3B6D32F813301A46FB6CD5
:100D40009A1A7B6902FA03F31A46BB691343BB6123
:100D5000964A3B6D13441B781A467B6913447B61AA
:100D60003B6907F1140207F118011846FFF7DEFC92
:100D700003463B6100233B6502E03B6D01333B656D
:100D80003B6D01338B4A32F813301A463B6A93426B
:100D9000F3DA0521386DFFF704FD02467B6902FA9C
:100DA00003F31A46BB691343BB617B6905337B615F
:100DB0003B6907F1140207F118011846FFF7B6FC6A
:100DC00003463B617C4A3B6D13441B78002B1FD0CC
:100DD000784A3B6D32F813301A463B6A9A1A7B699F
:100DE00002FA03F31A46BB691343BB61724A3B6DB7
:100DF00013441B781A467B6913447B613B6907F1F6
:100E0000140207F118011846FFF790FC03463B61F6
:100E10007A6DFB6C13447B6546E07B6DFA68134486
:100E20001B788F2B1ED87B6DFA6813441B783033E8
:100E300008211846FFF7B5FC02467B6902FA03F366
:100E40001A46BB691343BB617B6908337B613B690D
:100E500007F1140207F118011846FFF767FC034673
:100E60003B611EE07B6DFA6813441B7803F58073C9
:100E700009211846FFF795FC02467B6902FA03F345
:100E80001A46BB691343BB617B6909337B613B69CC
:100E900007F1140207F118011846FFF747FC034653
:100EA0003B617B6D01337B65BB68033B7A6D9A4286
:100EB000FFF68BAD46E07B6DFA6813441B788F2BF1
:100EC0001ED87B6DFA6813441B783033082118460E
:100ED000FFF767FC02467B6902FA03F31A46BB6917
:100EE0001343BB617B6908337B613B6907F11402E3
:100EF00007F118011846FFF719FC03463B611EE095
:100F00007B6DFA6813441B7803F58073092118463A
:100F1000FFF747FC02467B6902FA03F31A46BB69F6
:100F20001343BB617B6909337B613B6907F11402A1
:100F300007F118011846FFF7F9FB03463B617B6D8B
:100F400001337B657A6DBB689A42B4DB07210020D0
:100F5000FFF727FC02467B6902FA03F31A46BB69D6
:100F60001343BB617B6907337B613B6907F1140263
:100F700007F118011846FFF7D9FB03463B610EE065
:100F8000BB69BB617B6901337B613B6907F114027B
:100F900007F118011846FFF7C9FB03463B617B695F
:100FA000002BEDD100237B651BE000BF4400002433
:100FB0000800002464000024A40000247B6D9B0032
:100FC0007A6B13441B68002B08D07B6D9B007A6BF7
:100FD00013441B68083B184609F0FEFA7B6D013389
:100FE0007B657B6DB3F5804FE8DB786B09F0F4FA35
:100FF0003B69043B1968BB68981CBA6847F6FE73E6
:1010000013447E4A82FB03421A449213DB17D21A1E
:1010100013469B0013440344994240F3D7803B6935
:10102000043B02221A6000233B65CAE0BA683B6DAC
:10103000D31A7B647B6CB3F5004F02DB47F6FF737A
:101040007B643B69002B08D03B69043B1B685A1C3E
:101050003B69083B1B689A4207DB07F1100301223A
:1010600001211846FFF70EFB00BFBA683B6DD31A8B
:101070007A6C9A420CBF01230023DCB239693B69C8
:10108000043B1A68501C186013460B4422461A7021
:101090003B69002B08D03B69043B1B685A1C3B6929
:1010A000083B1B689A4207DB07F11003012201216C
:1010B0001846FFF7E7FA00BF39693B69043B1A6835
:1010C000501C186013460B447A6CD2B21A703B69FC
:1010D000002B08D03B69043B1B685A1C3B69083B4A
:1010E0001B689A4207DB07F1100301220121184611
:1010F000FFF7C8FA00BF7B6C1C1239693B69043BDF
:101100001A68501C186013460B44E2B21A703B690F
:10111000002B08D03B69043B1B685A1C3B69083B09
:101120001B689A4207DB07F11003012201211846D0
:10113000FFF7A8FA00BF7B6CD9B238693B69043B62
:101140001A68541C1C6013460344CA43D2B21A7076
:101150003B69002B08D03B69043B1B685A1C3B6968
:10116000083B1B689A4207DB07F1100301220121AB
:101170001846FFF787FA00BF7B6CDB431C12396906
:101180003B69043B1A68501C186013460B44E2B2DA
:101190001A703B693A69043A126898183B6DFA680C
:1011A00013447A6C194609F01FFA3B69043B19682D
:1011B0003B69043B7A6C0A441A603A6D7B6C1344B9
:1011C0003B653A6DBB689A42FFF630AF01233B6442
:1011D0000023FB63BB680A4A82FB0312D112DA17B1
:1011E0008A1A41F2B05101FB02F29B1ABB63002341
:1011F0003B653CE000237B6516E000BF03000180F7
:10120000AFA96E5E3A6D7B6D13441A46FB681344BA
:101210001B781A463B6C13443B64FA6B3B6C1344DB
:10122000FB637B6D01337B657A6DBB6B9A42E9DBB7
:10123000396C5A4BA3FB0123DA0B13461B039B1A91
:101240001B011344CB1A3B64F96B544BA3FB0123E2
:10125000DA0B13461B039B1A1B011344CB1AFB63C7
:101260003A6DBB6B13443B6541F2B053BB633A6DBF
:10127000BB689A42BEDB3B69002B08D03B69043B4C
:101280001B685A1C3B69083B1B689A4207DB07F145
:101290001003012201211846FFF7F4F900BFFB6B90
:1012A0001C0A39693B69043B1A68501C18601346D4
:1012B0000B44E2B21A703B69002B08D03B69043B37
:1012C0001B685A1C3B69083B1B689A4207DB07F105
:1012D0001003012201211846FFF7D4F900BF396934
:1012E0003B69043B1A68501C186013460B44FA6BA8
:1012F000D2B21A703B69002B08D03B69043B1B68D3
:101300005A1C3B69083B1B689A4207DB07F1100334
:10131000012201211846FFF7B5F900BF3B6C1C0AFA
:1013200039693B69043B1A68501C186013460B442A
:10133000E2B21A703B69002B08D03B69043B1B6882
:101340005A1C3B69083B1B689A4207DB07F11003F4
:10135000012201211846FFF795F900BF39693B6961
:10136000043B1A68501C186013460B443A6CD2B206
:101370001A703B6953F8042C7B681A603B69A3F12F
:10138000080039697B681B681A4609F03BF93B691C
:10139000083B18465C37BD4690BD00BF7180078092
:1013A00080B485B000AF786039604FF0FF33FB60E8
:1013B0000023BB6011E0FB681A0ABB6879680B4424
:1013C0001B781946FB68DBB24B400A4951F82330C1
:1013D0005340FB60BB680133BB60BA683B689A420C
:1013E000E9DBFB68DB4318461437BD465DF8047B38
:1013F000704700BFC400002480B584B000AF78609F
:1014000039607B681A6839686FF003035B1A1A4405
:101410003B68043319461046FFF7C2FFF860FB68CB
:101420001A0E7B681B68D2B21A70FB681A0C7B68B4
:101430001B680133D2B21A70FB681A0A7B681B68FA
:101440000233D2B21A707B681B680333FA68D2B2D7
:101450001A707B681B681A1D7B681A6000BF103702
:10146000BD4680BD80B489B000AFF860B9607A60D5
:10147000FA68BB681A447B68D31AFB61FA69FB6897
:10148000D31A002BB8BF5B42BB61FA69BB68D31AA1
:10149000002BB8BF5B427B61FA697B68D31A002BD3
:1014A000B8BF5B423B61BA697B699A4206DCBA69A4
:1014B0003B699A4202DCFB68DBB208E07A693B696F
:1014C0009A4202DCBB68DBB201E07B68DBB2184603
:1014D0002437BD465DF8047B7047000090B58BB0A3
:1014E00000AFF860B9607A603B60BB6B002B01D045
:1014F000974B00E0974B3B623B6C9B003A6A13446E
:101500001B68FB61944B1B68002B04D03B685A1E80
:10151000BB6BD31A00E0BB6BBA6802FB03F31A463D
:10152000FB681344BB618C4B1B68002B02D0BB686B
:101530005B4200E0BB687B61FB69002B09D17B68E3
:10154000FA6B02FB03F31A46B969786C09F04CF8A0
:101550007FE100237B6275E0FB69013B052B6ED8C0
:1015600001A252F823F000BF81150008951500086C
:10157000BB150008E5150008171600082B16000813
:101580007B6ABA69134419787B6A7A6C13444AB24D
:101590001A7054E07B6ABA6913441A78796A7B69D5
:1015A000CB1A1946BB690B441B78D31AD9B27B6A94
:1015B0007A6C13444AB21A7041E07B6ABA691344E8
:1015C0001A78796A7B69CB1A1946BB690B441B7878
:1015D0005B08DBB2D31AD9B27B6A7A6C13444AB285
:1015E0001A702CE07B6ABA6913441C787A6A7B69AA
:1015F000D31A1A46BB6913441B78002219460020EF
:10160000FFF730FF0346E31AD9B27B6A7A6C1344C2
:101610004AB21A7013E07B6ABA69134419787B6A7C
:101620007A6C13444AB21A7009E07B6ABA691344AF
:1016300019787B6A7A6C13444AB21A7000BF7B6ACD
:1016400001337B627A6AFB6B9A4285DBFB69013B63
:10165000052B00F2FE8001A252F823F07516000857
:10166000B5160008F51600084B170008C317000848
:1016700007180008FB6B7B6214E07B6ABA691344AD
:101680001A78796AFB6BCB1A1946BB690B441B7835
:10169000D31AD9B27B6A7A6C13444AB21A707B6A45
:1016A00001337B627B68FA6B02FB03F37A6A9A422E
:1016B000E3DBCEE0FB6B7B6214E07B6ABA69134428
:1016C0001A78796A7B69CB1A1946BB690B441B7877
:1016D000D31AD9B27B6A7A6C13444AB21A707B6A05
:1016E00001337B627B68FA6B02FB03F37A6A9A42EE
:1016F000E3DBAEE0FB6B7B621FE07B6ABA691344FD
:101700001A78796AFB6BCB1A1946BB690B441B78B4
:101710001846796A7B69CB1A1946BB690B441B785A
:1017200003445B10DBB2D31AD9B27B6A7A6C1344E0
:101730004AB21A707B6A01337B627B68FA6B02FBE8
:1017400003F37A6A9A42D8DB83E0FB6B7B6230E07A
:10175000C4040024D80400243C0600247B6ABA692F
:1017600013441C787A6AFB6BD31A1A46BB6913447C
:101770001B7818467A6A7B69D31A1A46BB691344E8
:101780001B7819467A6A7B69D21AFB6BD31A1A4600
:10179000BB6913441B781A46FFF764FE0346E31A3D
:1017A000D9B27B6A7A6C13444AB21A707B6A0133ED
:1017B0007B627B68FA6B02FB03F37A6A9A42CDDBA9
:1017C00047E0FB6B7B6216E07B6ABA6913441A78C8
:1017D000796AFB6BCB1A1946BB690B441B785B0813
:1017E000DBB2D31AD9B27B6A7A6C13444AB21A704C
:1017F0007B6A01337B627B68FA6B02FB03F37A6AD4
:101800009A42E1DB25E0FB6B7B621AE07B6ABA69F6
:1018100013441C787A6AFB6BD31A1A46BB691344CB
:101820001B78002200211846FFF71CFE0346E31A2E
:10183000D9B27B6A7A6C13444AB21A707B6A01335C
:101840007B627B68FA6B02FB03F37A6A9A42DDDB08
:1018500000BF2C37BD4690BDB0B59CB004AFF8605A
:10186000B9607A603B607F4B1B68FB657E4B07F17C
:1018700020041D460FCD0FC42B6823607B4A07F15F
:10188000180392E8030083E80300BB68002B04D12F
:101890007B683A6F02FB03F3BB60FB6D042B02DD38
:1018A0004FF0FF33FB657B683A6F02FB03F30133B4
:1018B0003A6802FB03F3184608F086FE03463B64D1
:1018C0003B6C002B01D10023D9E17B683A6F02FB0E
:1018D00003F3184608F078FE0346FB63FB6B002B0E
:1018E00004D1386C08F078FE0023C8E10023BB6502
:1018F0008BE0FB6D002B10DBFB6D7B65FB6B0393BB
:10190000FB6D02933B6F0193BB6D00933B687A685C
:10191000B968F868FFF7E2FD53E000233B656FF01C
:101920000043FB6400237B6534E0FB6B03937B6D1A
:1019300002933B6F0193BB6D00933B687A68B96873
:10194000F868FFF7CBFD0023BB6400237B640FE046
:101950007B6CFA6B134493F90030002BB8BF5B42E9
:10196000DBB21A46BB6C1344BB647B6C01337B64F3
:101970007B683A6F02FB03F37A6C9A42E8DBBA6C3D
:10198000FB6C9A4203DABB6CFB647B6D3B657B6D41
:1019900001337B657B6D042BC7DD7A6D3B6D9A420D
:1019A0000FD0FB6B03933B6D02933B6F0193BB6DB9
:1019B00000933B687A68B968F868FFF78FFD3B6D64
:1019C0007B657B683A6F02FB03F30133BA6D02FB60
:1019D00003F31A463B6C13447A6DD2B21A707B68DB
:1019E0003A6F02FB03F30133BA6D02FB03F30133D9
:1019F0003A6CD0187B683A6F02FB03F31A46F96B16
:101A000008F000FEBB6D0133BB65BA6D3B689A42BE
:101A1000FFF66FAFF86B08F0DFFD7B683A6F02FBF3
:101A200003F301333A6802FB03F1114B1B6807F122
:101A30001002386CFEF732FFB863386C08F0CCFD4A
:101A4000BB6B002B01D1002319E13B6939331846E8
:101A500008F0BAFD03467B637B6B002B0AD10023A1
:101A60000DE100BF0400002478BE00088CBE000811
:101A7000000000243B6903F139027B6F1A607B6B25
:101A80007B617B6907F118010822184608F0BAFD4E
:101A90007B6908337B617B6900221A707B690133A3
:101AA00000221A707B69023300221A707B690333AB
:101AB0000D221A707B6904337B617B6949221A709D
:101AC0007B69013348221A707B69023344221A7001
:101AD0007B69033352221A707B6904337B617B6814
:101AE0001A167B69D2B21A707B681A147B690133AB
:101AF000D2B21A707B681A127B690233D2B21A70A2
:101B00007B6903337A68D2B21A707B6904337B61D4
:101B10003B681A167B69D2B21A703B681A147B694B
:101B20000133D2B21A703B681A127B690233D2B207
:101B30001A707B6903333A68D2B21A707B69043336
:101B40007B617B695A1C7A6108221A703B6F9B008B
:101B500060333B4453F8401C7B695A1C7A61CAB21B
:101B60001A707B695A1C7A6100221A707B695A1CB0
:101B70007A6100221A707B695A1C7A6100221A70FD
:101B800007F114030D211846FFF736FC3B691A16BE
:101B90007B69D2B21A703B691A147B690133D2B2E5
:101BA0001A703B691A127B690233D2B21A703A6911
:101BB0007B690333D2B21A707B6904337B617B6922
:101BC00049221A707B69013344221A707B690233FF
:101BD00041221A707B69033354221A707B690433E3
:101BE0007B617B693A69B96B184608F00BFD7B692C
:101BF0003A6913447B61B86B08F0EEFC3A6907F16F
:101C0000140311461846FFF7F7FB7B6900221A7090
:101C10007B69013300221A707B69023300221A703B
:101C20007B69033300221A707B6904337B617B6913
:101C300049221A707B69013345221A707B6902338D
:101C40004E221A707B69033344221A707B69043375
:101C50007B6107F1140300211846FFF7CDFB7B6F72
:101C60001B681A467B6B1A447B699A4206D0064B66
:101C7000064A40F2B941064808F0A2F97B6B1846C3
:101C80006037BD46B0BD00BF64BE0008B085010826
:101C90002CBD0008B0B598B000AFF860B9603B60EB
:101CA0001346FB802F4B07F134041D460FCD0FC4A4
:101CB00095E80F0084E80F002B4B07F114041D4634
:101CC0000FCD0FC495E80F0084E80F000023FB65DB
:101CD00040E0FB6D9B0060333B4453F82C3C1946BD
:101CE000FB6D9B0060333B4453F84C3C3A6802FB6D
:101CF00003F3CB1AFA681344BB65FB6D9B0060339A
:101D00003B4453F82C3C1946FB6D9B0060333B442D
:101D100053F84C3C3A6802FB03F3CB1A5B00BA68F9
:101D200013447B65BB6D1B78802B10D17B6DB3F9A1
:101D30000030B7F906209A4209DABB6D00221A700A
:101D4000B7F906203B68796DB86DFFF7A3FFFB6D0F
:101D50000133FB65FB6D072BBBDD00BF00BF6037A8
:101D6000BD46B0BD18BF000838BF000890B5ADF53E
:101D7000003D8FB000AF07F1380444F8240C07F1A0
:101D8000380040F8281C07F1380141F82C2C07F1E5
:101D9000380242F8303C07F1380303ED0D0A07F131
:101DA000380343ED0E0A00237A4A3A4413600023B5
:101DB000794A3A44136040E00023784A3A44136079
:101DC0002BE0754B3B441B6807F1380252F8282C76
:101DD00013441B78802B09D16F4B3B441B68704A1E
:101DE0003A441268134480221A7008E06A4B3B445C
:101DF0001B686B4A3A4412681344FF221A70674BFF
:101E00003B441B680133654A3A441360624B3B44D0
:101E10001B680133604A3A44136007F138035F4A94
:101E20003A44126853F8303C9A42CADB594B3B445F
:101E30001B680133574A3A44136007F13803554A87
:101E40003A44126853F82C3C9A42B5DB0023514ABD
:101E50003A4413600023504A3A44136029E04E4B41
:101E60003B441B684E4A3A4412681344FF221A70DE
:101E700007F13803484A3A44126853F8303C134497
:101E8000013B474A3A4412681344FF221A70414BFF
:101E90003B441B6801333F4A3A44136007F138035F
:101EA0003D4A3A44126853F8303C13443A4A3A44A3
:101EB000136007F13803374A3A44126853F82C3C50
:101EC0009A42CCDB07F1380353F82C3C5A1E07F139
:101ED000380353F8303C02FB03F32F4A3A441360B3
:101EE00000232E4A3A4413601FE02C4B3B441B68EE
:101EF0002B4A3A4412681344FF221A70264B3B4483
:101F00001B68274A3A4412681344FF221A70234B75
:101F10003B441B680133214A3A4413601E4B3B4447
:101F20001B6801331C4A3A44136007F138031B4A0B
:101F30003A44126853F8303C9A42D6DB0023154AE3
:101F40003A44136011E007F138031A46114B3B4441
:101F50001B689B001344002243F8202C0D4B3B448C
:101F60001B6801330B4A3A4413600A4B3B441B681D
:101F7000B3F5004FE7DB0023064A3A441360002321
:101F8000054A3A44136050E00023044A3A4413607F
:101F90003BE000BF340002002C00020030000200D1
:101FA00048000200814B3B441B68814A3A44126856
:101FB00013441B78802B1AD17C4B3B441B685B007D
:101FC00007F1380252F8242C1344B3F900301A46B2
:101FD00007F13803194693000B4453F8203C591C71
:101FE00007F1380318469300034443F8201C714B53
:101FF0003B441B6801336F4A3A4413606B4B3B44CC
:102000001B680133694A3A44136007F13803694A8F
:102010003A44126853F8303C9A42C3DB664B3B4467
:102020001B680133644A3A44136007F13803624A7B
:102030003A44126853F82C3C9A42A5DB01235E4ACD
:102040003A44136000235D4A3A44136029E007F1E3
:1020500038031A46584B3B441B689B00134453F803
:10206000203C002B05D0544B3B441B68544A3A4457
:10207000138007F138031A464F4B3B441B689B0003
:10208000134453F8203C4D4A3A44126813444B4AD7
:102090003A441360484B3B441B680133464A3A4478
:1020A0001360454B3B441B68B3F5004FCFDB434BFC
:1020B0003B441B6807EE903AB8EEE77A07F1380325
:1020C00053ED0E7A67EE277AB7EEE77AB6EE006B3D
:1020D00037EE067BFDEEC77B17EE903A394A3A445D
:1020E00013600123344A3A44136007F1380353F86C
:1020F0001C3C324A3A44136017E02F4B3B441B68A8
:1021000001332D4A3A44136007F138031A462A4B2B
:102110003B441B689B00134453F8203C274A3A4435
:1021200012681344254A3A441360254B3B44B3F9E3
:102130000030013B204A3A4412689A4207DA1F4BAA
:102140003B441A681F4B3B441B689A42D5DB1A4B31
:102150003B441B681C4A3A4413601B4B3B441B68BE
:1021600007EE903AB8EEE77A07F1380353ED0D7AAF
:1021700067EE277AB7EEE77AB6EE006B37EE067BAE
:10218000FDEEC77B17EE903A104A3A4413600023E5
:10219000094A3A4413600023044A3A44136073E046
:1021A0000023044A3A4413605EE000BF2C000200A2
:1021B0004800020030000200340002002800020043
:1021C00026000200200002001C000200180002008D
:1021D000594B3B441B68594A3A44126813441B78D4
:1021E000802B33D1544B3B441B685B0007F1380212
:1021F00052F8242C1344B3F900301A46504B3B4498
:102200001B68934222DC4C4B3B441B684B4A3A44CC
:102210001268134400221A70474B3B441B68474A1C
:102220003A441268D018444B3B441B685B0007F1EA
:10223000380252F8242CD118424B3B441B681AB286
:1022400007F1380353F8303CFFF724FD3E4B3B4485
:102250001B6801333C4A3A441360374B3B441B68CC
:102260000133354A3A44136007F13803364A3A4499
:10227000126853F8303C9A42AADB344B3B441B684B
:102280000133324A3A44136007F138032F4A3A4483
:10229000126853F82C3C9A4282DB00232B4A3A44C2
:1022A00013600023244A3A44136035E00023264A91
:1022B0003A44136020E0204B3B441B681F4A3A44D9
:1022C000126813441B78002B08D01B4B3B441B683F
:1022D0001A4A3A4412681344FF221A701A4B3B44BC
:1022E0001B680133184A3A441360134B3B441B6884
:1022F0000133114A3A44136007F13803124A3A4451
:10230000126853F8303C9A42D5DB104B3B441B68B3
:1023100001330E4A3A44136007F138030B4A3A443A
:10232000126853F82C3C9A42C0DB00BF00BF07F58F
:1023300000373C37BD4690BD2C000200480002002B
:102340001C000200180002003000020034000200ED
:1023500080B497B000AFF860B9607A603B6000234A
:10236000FB647B6EFB613B68013B3A6E02FB03F34F
:102370001A467B6E1344BB610FE0BB6900221A70E2
:10238000BB691A78FB691A70BB690133BB61FB69D1
:102390000133FB61FB6C0133FB64FA6C3B6E9A42C8
:1023A000EBDB0023FB647B6EBB613B6E013B7A6E13
:1023B0001344FB6111E0FB6900221A70FB691A7873
:1023C000BB691A70FB6C0133FB643B6EBA69134442
:1023D000BB613B6EFA691344FB61FA6C3B689A423D
:1023E000E9DB01237B653B6E01335B00FA68134434
:1023F000BB643B6E01335B00BA6813443B643B6EC5
:1024000001335B007A681344BB633B6E01337A6E21
:102410001344FB616EE301233B65BB6C7B643B6C47
:10242000FB63BB6B7B63FB69BB6147E37B6C1B8816
:10243000FB82B7F91630002B03D1BB69FF221A705B
:1024400026E0FB6B1B887B86B7F932305B4207EED8
:10245000903AF8EEE76AB7F9163007EE903AB8EE20
:10246000E77AC6EE877AC7ED097A7B6B1B883B86D5
:10247000B7F9303007EE903AF8EEE76AB7F9163060
:1024800007EE903AB8EEE77AC6EE877AC7ED087A9B
:10249000B7F93230002BC0F27081B7F93030002B21
:1024A000C0F2B480B7F93220B7F930309A4253DB2A
:1024B0007B6C33F8023CBB823A6E6FF000439B1A90
:1024C0005B007A6C13441B887B82B7F91620B7F93E
:1024D0001430D31A07EE903AB8EEE77AD7ED097ABE
:1024E00027EE277AB7F91220B7F91430D31A07EE7E
:1024F000903AF8EEE76AD7ED087A66EEA77A77EEBB
:10250000277AC7ED0B7A7B6C5B88BB823B6E01330D
:102510005B007A6C13441B887B82B7F91620B7F9ED
:102520001430D31A07EE903AB8EEE77AD7ED097A6D
:1025300027EE277AB7F91220B7F91430D31A07EE2D
:10254000903AF8EEE76AD7ED087A66EEA77A77EE6A
:10255000277AC7ED0A7A82E23B6E5B005B427A6CB7
:1025600013441B88BB823A6E6FF000439B1A5B00DA
:102570007A6C13441B887B82B7F91420B7F91230A8
:10258000D31A07EE903AB8EEE77AD7ED097A27EE3C
:10259000277AB7F91420B7F91630D31A07EE903A14
:1025A000F8EEE76AD7ED087A66EEA77A77EE277A33
:1025B000C7ED0B7A3B6E5B007A6C13441B88BB82C1
:1025C0003B6E01335B007A6C13441B887B82B7F946
:1025D0001420B7F91230D31A07EE903AB8EEE77A22
:1025E000D7ED097A27EE277AB7F91420B7F9163014
:1025F000D31A07EE903AF8EEE76AD7ED087A66EE5E
:10260000A77A77EE277AC7ED0A7A28E2B7F932205F
:10261000B7F930305B429A4254DB7B6C33F8023CB2
:10262000BB823A6E6FF0004313445B007A6C134434
:102630001B887B82B7F91620B7F91430D31A07EE3E
:10264000903AB8EEE77AD7ED097A27EE277AB7F90C
:102650001420B7F91230D31A07EE903AF8EEE76A71
:10266000D7ED087A66EEA77A77EE277AC7ED0B7A70
:102670007B6C5B88BB823B6EC3F101035B007A6CB1
:1026800013441B887B82B7F91620B7F91430D31A8C
:1026900007EE903AB8EEE77AD7ED097A27EE277A77
:1026A000B7F91420B7F91230D31A07EE903AF8EEC2
:1026B000E76AD7ED087A66EEA77A77EE277AC7ED54
:1026C0000A7ACCE13B6E5B007A6C13441B88BB82B8
:1026D0003A6E6FF0004313445B007A6C13441B881E
:1026E0007B82B7F91420B7F91230D31A07EE903A6B
:1026F000B8EEE77AD7ED097A27EE277AB7F91620F0
:10270000B7F91430D31A07EE903AF8EEE76AD7ED2E
:10271000087A66EEA77A77EE277AC7ED0B7A3B6EDA
:102720005B005B427A6C13441B88BB823B6EC3F137
:1027300001035B007A6C13441B887B82B7F9142079
:10274000B7F91230D31A07EE903AB8EEE77AD7ED20
:10275000097A27EE277AB7F91620B7F91430D31A79
:1027600007EE903AF8EEE76AD7ED087A66EEA77AB8
:1027700077EE277AC7ED0A7A71E17B6B1B883B867F
:10278000B7F93030002BC0F2B780B7F932305A4277
:10279000B7F930309A4254DB7B6C5B88BB823B6E6E
:1027A000C3F101035B007A6C13441B887B82B7F989
:1027B0001420B7F91630D31A07EE903AB8EEE77A3C
:1027C000D7ED097A27EE277AB7F91220B7F9143036
:1027D000D31A07EE903AF8EEE76AD7ED087A66EE7C
:1027E000A77A77EE277AC7ED0B7A7B6C33F8023C39
:1027F000BB823A6E6FF0004313445B007A6C134463
:102800001B887B82B7F91420B7F91630D31A07EE6C
:10281000903AB8EEE77AD7ED097A27EE277AB7F93A
:102820001220B7F91430D31A07EE903AF8EEE76A9F
:10283000D7ED087A66EEA77A77EE277AC7ED0A7A9F
:102840000DE13B6E5B005B427A6C13441B88BB82DC
:102850003B6EC3F101035B007A6C13441B887B82DF
:10286000B7F91220B7F91430D31A07EE903AB8EE40
:10287000E77AD7ED097A27EE277AB7F91420B7F966
:102880001630D31A07EE903AF8EEE76AD7ED087AD9
:1028900066EEA77A77EE277AC7ED0B7A3B6E5B0080
:1028A0007A6C13441B88BB823A6E6FF0004313446A
:1028B0005B007A6C13441B887B82B7F91220B7F94E
:1028C0001430D31A07EE903AB8EEE77AD7ED097ACA
:1028D00027EE277AB7F91420B7F91630D31A07EE86
:1028E000903AF8EEE76AD7ED087A66EEA77A77EEC7
:1028F000277AC7ED0A7AB2E0B7F93220B7F930305B
:102900009A4253DA7B6C5B88BB823B6E01335B007F
:102910007A6C13441B887B82B7F91420B7F9163000
:10292000D31A07EE903AB8EEE77AD7ED097A27EE98
:10293000277AB7F91420B7F91230D31A07EE903A74
:10294000F8EEE76AD7ED087A66EEA77A77EE277A8F
:10295000C7ED0B7A7B6C33F8023CBB823A6E6FF0AA
:1029600000439B1A5B007A6C13441B887B82B7F987
:102970001420B7F91630D31A07EE903AB8EEE77A7A
:10298000D7ED097A27EE277AB7F91420B7F9123074
:10299000D31A07EE903AF8EEE76AD7ED087A66EEBA
:1029A000A77A77EE277AC7ED0A7A58E03B6E5B008C
:1029B0007A6C13441B88BB823B6E01335B007A6CDC
:1029C00013441B887B82B7F91220B7F91430D31A4D
:1029D00007EE903AB8EEE77AD7ED097A27EE277A34
:1029E000B7F91620B7F91430D31A07EE903AF8EE7B
:1029F000E76AD7ED087A66EEA77A77EE277AC7ED11
:102A00000B7A3B6E5B005B427A6C13441B88BB8283
:102A10003A6E6FF000439B1A5B007A6C13441B887C
:102A20007B82B7F91220B7F91430D31A07EE903A27
:102A3000B8EEE77AD7ED097A27EE277AB7F91620AC
:102A4000B7F91430D31A07EE903AF8EEE76AD7EDEB
:102A5000087A66EEA77A77EE277AC7ED0A7AD7ED7D
:102A60000B7AF5EEC07AF1EE10FA06DCD7ED0A7AB1
:102A7000F5EEC07AF1EE10FA03DDBB69FF221A70A1
:102A80000DE0D7ED0A7AF5EE407AF1EE10FA03D1B7
:102A9000BB69FF221A7002E0BB6980221A703B6D8D
:102AA00001333B657B6C02337B64FB6B0233FB635E
:102AB0007B6B02337B63BB690133BB613B6E023BC3
:102AC0003A6D9A42FFF6B2AC7B6D01337B653B6E8B
:102AD0005B00BA6C1344BB643B6E5B00BA6B13447F
:102AE000BB633B6E5B003A6C13443B643B6EFA691C
:102AF0001344FB613B68023B7A6D9A42FFF68BAC54
:102B000000BF00BF5C37BD465DF8047B7047000026
:102B100080B590B002AFF861B9617A6187ED040ABF
:102B2000C7ED030A87ED021A7B6007F1300397EDCA
:102B3000040A7A69B969F86900F036FA386B07F166
:102B40002C0207F12803009313467A69B96900F053
:102B5000F9F83B6B184607F03FFDF86AB96A07F1D0
:102B6000240300937B69BA6900F064F8BB697A6951
:102B700002FB03F30121184607F040FA03467B638A
:102B80007B6B002B0AD1284B1B68DB6820220121BC
:102B9000264807F07FFC012007F03EFA786AF96AC0
:102BA000BA6A7B6B01937B690093BB69FFF7D0FB2B
:102BB000FB6A184607F010FDBB6A184607F00CFDCB
:102BC000BB697A6902FB03F30121184607F016FA84
:102BD00003461A467B681A607B681B68002B0AD183
:102BE000114B1B68DB6821220121114807F052FCC0
:102BF000012007F011FA786A7B681B680093D7ED13
:102C0000020A97ED030A7B69BA69796BFFF7AEF8A0
:102C10007B6A184607F0E0FC786B07F0DDFC00BF2C
:102C20003837BD4680BD00BFFC04002458BF0008F3
:102C30007CBF000880B58AB000AFF860B9607A60E8
:102C40003B607B683A6802FB03F30221184607F0F9
:102C5000D5F903461A463B6B1A603B6B1B68002B89
:102C60000AD1364B1B68DB6826220121344807F065
:102C700011FC012007F0D0F900237B620023FB61E7
:102C800052E000233B6248E0FB695B00FA681344B2
:102C9000B3F900301946FB695B00FA681344B3F9D5
:102CA000003001FB03F3BB61FB695B00BA681344AE
:102CB000B3F900301946FB695B00BA681344B3F9F5
:102CC000003001FB03F37B61BB6907EE903AB8EE7D
:102CD000E77A7B6907EE903AF8EEE77A77EE277AA3
:102CE000B7EEE77AB0EE470B07F0D6F8B0EE407BD0
:102CF000B6EE006B37EE067B3B6B1A68FB695B0038
:102D00001344FDEEC77B17EE902A12B21A803B6A7D
:102D100001333B62FB690133FB613A6A3B689A42CB
:102D2000B2DB7B6A01337B627A6A7B689A42A8DBFA
:102D300000BF00BF2837BD4680BD00BFFC04002493
:102D4000D0BF000880B588B000AFF860B9607A6085
:102D50003B60BB687A6802FB03F30221184607F068
:102D60004DF903461A463B681A603B681B68002B06
:102D70000AD18A4B1B68DB6824220121884807F0AE
:102D800089FB012007F048F9BB687A6802FB03F36E
:102D90000221184607F032F903461A46BB6A1A6048
:102DA000BB6A1B68002B0AD17C4B1B68DB682422A2
:102DB00001217B4807F06EFB012007F02DF900236D
:102DC000FB6165E0FB697A6802FB03F37B617B6969
:102DD00001335B00FA681344B3F900309AB27B699F
:102DE0005B00F9680B44B3F900309BB2D31A99B277
:102DF0003B681A687B695B0013440AB21A807B69DE
:102E000001337B610123BB6120E07B6901335B00FF
:102E1000FA681344B3F900309AB279696FF000434D
:102E20000B445B00F9680B44B3F900309BB2D31A32
:102E300099B23B681A687B695B0013440AB21A8036
:102E4000BB690133BB617B6901337B617B68013BFB
:102E5000BA699A42D9DB7B695B00FA681344B3F91B
:102E600000309AB279696FF000430B445B00F96857
:102E70000B44B3F900309BB2D31A99B23B681A687D
:102E80007B695B0013440AB21A80FB690133FB6162
:102E9000FA69BB689A4295DB0023BB613EE0BB69DF
:102EA0007B617A697B6813445B00FA681344B3F969
:102EB00000309AB27B695B00F9680B44B3F90030CB
:102EC0009BB2D31A99B2BB6A1A687B695B00134440
:102ED0000AB21A80BB68013BBA6802FB03F3BA6905
:102EE00013447B617B695B00FA681344B3F90030DB
:102EF0009AB279697B68CB1A5B00F9680B44B3F925
:102F000000309BB2D31A99B2BB6A1A687B695B0026
:102F100013440AB21A80BB690133BB61BA697B688A
:102F20009A42BCDB0123FB612EE00023BB6124E05D
:102F3000FB697A6802FB03F3BA6913447B617A691F
:102F40007B6813445B00FA681344B3F900309AB20B
:102F500079697B68CB1A5B00F9680B44B3F90030E0
:102F60009BB2D31A99B2BB6A1A687B695B0013449F
:102F70000AB21A80BB690133BB61BA697B689A42A5
:102F8000D6DBFB690133FB61BB68013BFA699A42FE
:102F9000CBDB00BF00BF2037BD4680BDFC04002452
:102FA000F8BF00080000000080B592B000AF786163
:102FB0003961FA6087ED020A7B6000237B637B6BDB
:102FC000FB6107F1200207F11C031146184697ED3B
:102FD000020A00F0A9F9FB697B633B6A002B00DA67
:102FE00001335B103B633B69FA6802FB03F3042186
:102FF000184607F003F80346FB62FB6A002B0AD170
:103000009F4B1B68DB68232201219E4807F042FA90
:10301000012007F001F83B69FA6802FB03F3022183
:10302000184606F0EBFF03461A467B681A607B6879
:103030001B68002B0AD1924B1B68DB6825220121FB
:10304000914807F027FA012006F0E6FFFB6804210B
:10305000184606F0D3FF0346BB62FB6804211846FE
:1030600006F0CCFF03467B6200237B6493E0FB68A1
:103070009B001A460021B86A07F0DEFAFB689B0045
:103080001A460021786A07F0D7FA3B6B5B42BB63B4
:1030900057E0BB6B002B02DCBB6B5B4200E0002304
:1030A0003B6440E03B6C9B00BA6A134493ED007AAA
:1030B0007B6CFA6803FB02F2396CBB6B0B44134464
:1030C0001A467B6913441B7807EE903AF8EE676A5C
:1030D0003A6BBB6B13449B007A6B1344D3ED007ABD
:1030E00066EEA77A3B6C9B00BA6A134477EE277AA8
:1030F000C3ED007A3B6C9B007A6A134493ED007A2F
:103100003A6BBB6B13449B007A6B1344D3ED007A8C
:103110003B6C9B007A6A134477EE277AC3ED007A02
:103120003B6C01333B64BB6B002B03DBFA68BB6B6E
:10313000D31A00E0FB683A6C9342B3DCBB6B0133FB
:10314000BB63BA6B3B6B9A42A3DD00233B641BE07D
:103150003B6C9B00BA6A1344D3ED006A3B6C9B0046
:103160007A6A134493ED007A7B6CFA6803FB02F2EF
:103170003B6C13449B00FA6A1344C6EE877AC3ED96
:10318000007A3B6C01333B643A6CFB689A42DFDBAC
:103190007B6C01337B647A6C3B699A42FFF667AFC4
:1031A00000237B64A6E0FB689B001A460021B86AF6
:1031B00007F042FAFB689B001A460021786A07F084
:1031C0003BFA3B6B5B42FB6352E07A6CFB6B134454
:1031D000002B4ADB7A6CFB6B13443A699A4244DD5C
:1031E00000233B643DE03B6C9B00BA6A134493EDC3
:1031F000007A7A6CFB6B1344FA6803FB02F23B6CB7
:1032000013449B00FA6A1344D3ED006A3A6BFB6BDC
:1032100013449B007A6B1344D3ED007A66EEA77AD1
:103220003B6C9B00BA6A134477EE277AC3ED007AB1
:103230003B6C9B007A6A134493ED007A3A6BFB6B0C
:1032400013449B007A6B1344D3ED007A3B6C9B00D4
:103250007A6A134477EE277AC3ED007A3B6C013328
:103260003B643A6CFB689A42BDDBFB6B0133FB634A
:10327000FA6B3B6B9A42A8DD00233B6433E000BF4E
:10328000FC04002420C0000844C000083B6C9B00E4
:10329000BA6A1344D3ED007AB7EEE77A9FED206B5C
:1032A00027EE065B3B6C9B007A6A1344D3ED007AF1
:1032B000B7EEE76A85EE067BB6EE006B37EE067B6F
:1032C0007B681A687B6CF96803FB01F13B6C0B446B
:1032D0005B001344FDEEC77B17EE902A12B21A80F2
:1032E0003B6C01333B643A6CFB689A42CEDB7B6CEF
:1032F00001337B647A6C3B699A42FFF654AFB86A3B
:1033000007F06AF9786A07F067F9F86A07F064F974
:10331000786B07F061F900BF4837BD4680BD00BF3C
:10332000000000000080564080B58AB000AF87EDF5
:10333000030AB86079604FF000033B62D7ED037A6F
:10334000B7EEE77AB0EE046B27EE067BB0EE470BE4
:1033500006F02AFDB0EE407B37EE077BB7EE006B40
:1033600037EE067BFDEEC77B17EE902A7B681A606E
:103370007B681B68002B00DA01335B10FB617B6804
:103380001B680421184606F039FE03461A46BB683E
:103390001A60BB681B68002B0AD1434B1B68DB68B3
:1033A0002B220121414807F075F8012006F034FE78
:1033B00000237B6246E07A6AFB69D31A07EE903AF3
:1033C000F8EEE77AC7ED067AD7ED067AB7EEE77A38
:1033D000BEEE006B27EE066BD7ED067AB7EEE77A06
:1033E00026EE076BD7ED037A67EEA77AB7EEE77A9A
:1033F00086EE075BB0EE451B9FED270B06F080FACB
:10340000B0EE405BD7ED037AB7EEE77A9FED246B21
:1034100027EE066B85EE067BF7EEC77BC7ED057AD8
:10342000BB681A687B6A9B0013447A691A6097ED3F
:10343000087AD7ED057A77EE277AC7ED087A7B6AA6
:1034400001337B627B681B687A6A9A42B3DB002394
:103450007B6214E0BB681A687B6A9B001344D3ED5F
:10346000006ABB681A687B6A9B00134497ED087A70
:10347000C6EE877AC3ED007A7B6A01337B627B6894
:103480001B687A6A9A42E5DB00BF00BF2837BD4659
:1034900080BD00BFAFF3008090F7AA9509BF05403B
:1034A000F6F1C41F930D0440FC0400246CC0000816
:1034B00080B5A4B002AF00F019FE00F07BF800F078
:1034C000C3F900F0F7F800F041F900F08BF90023A0
:1034D000C7F884302F4BC7F880302F4BFB672F4B3A
:1034E000BB6707F17002D7F884300093134697ED5D
:1034F0001E1AD7ED1F0A97ED200A4FF49672A821E5
:103500002748FFF705FB0023FB66386F07F16C03C4
:10351000019301230093A8234FF496724FF4967100
:10352000FEF79AF97867FB6E9AB21E4B796F1E48C8
:1035300004F092FD0D2387F86B3007F16B01194BF6
:103540000122194804F088FD00237B6007F108037D
:1035500060220021184607F06FF8381D4FF496736B
:10356000A822124907F06CFC03469AB2391D0D4B94
:103570000D4804F071FD012201210D4801F044FDC8
:1035800001210B4801F059FD4FF47A7000F040FE24
:10359000F6E700BF3333333F9A99193F6666663FBB
:1035A000ACC00008A08601002807002498C00008CD
:1035B0000004025880B59CB000AF07F124034C22F0
:1035C0000021184607F038F83B1D2022002118463C
:1035D00007F032F8022001F093FE00233B60334BEA
:1035E000DB6A324A23F00103D362304BDB6A03F01B
:1035F00001033B602E4B9B6923F440432C4A43F468
:10360000004393612A4B9B6903F440433B603B6852
:1036100000BF274B9B6903F40053B3F5005FF8D15B
:1036200003237B624FF4A023BB6201233B6340234F
:103630007B630223BB640223FB6401233B651823E5
:103640007B650223BB650423FB6502233B660C23D9
:103650007B660023BB660023FB6607F12403184644
:1036600001F098FE0346002B01D000F0C9F93F237A
:103670007B600023BB600023FB6000233B610023D1
:103680007B610023BB610023FB6100233B623B1D88
:103690000121184602F0D8FA0346002B01D000F0B1
:1036A000AFF900BF7037BD4680BD00BF00040058B1
:1036B0000048025880B500AF1E4B1F4A1A601F4BCE
:1036C00000221A701D4B80225A701C4BE1229A7006
:1036D0001A4B0022DA70194B00221A71174B002284
:1036E0005A71144B154A5A60124B01221A72114B2F
:1036F000134ADA600F4B134A1A610E4B40F2F45230
:103700005A610C4800F0ACFE0346002B01D000F0DB
:1037100077F9382200210C4806F08EFF0A4B21224F
:103720001A60094B4FF440325A61074B00221A616C
:1037300000BF80BD7806002400800240C80C002431
:10374000C0050024600500244006002480B500AFB9
:10375000224B234A1A60214B4FF4E1325A601F4B2F
:1037600000229A601D4B0022DA601C4B00221A6175
:103770001A4B0C225A61194B00229A61174B0022F6
:10378000DA61164B00221A62144B00225A62134B64
:1037900000229A62114804F00FFC0346002B01D06E
:1037A00000F02EF900210D4805F09FFC0346002B88
:1037B00001D000F025F90021084805F0D4FC0346AB
:1037C000002B01D000F01CF9044805F055FC03461D
:1037D000002B01D000F014F900BF80BD28070024A1
:1037E0000048004080B500AF154B164A1A60144BD4
:1037F00009225A60124B02221A61114B0022DA6030
:103800000F4B02229A610E4B0122DA610C4B00220F
:103810001A620B4B00225A62094B01229A62084B32
:103820000122DA62064B00221A63054801F01FFCF0
:103830000346002B01D000F0E3F800BF80BD00BFBD
:10384000BC0700240000084080B58CB000AF07F131
:103850001C0300221A605A609A60DA601A61624B97
:10386000D3F8E030604A43F00403C2F8E0305E4B26
:10387000D3F8E03003F00403BB61BB695A4BD3F8C3
:10388000E030594A43F08003C2F8E030564BD3F899
:10389000E03003F080037B617B69534BD3F8E03069
:1038A000514A43F00103C2F8E0304F4BD3F8E03007
:1038B00003F001033B613B694B4BD3F8E0304A4ACC
:1038C00043F00203C2F8E030474BD3F8E03003F096
:1038D0000203FB60FB68444BD3F8E030424A43F0FC
:1038E0000803C2F8E030404BD3F8E03003F008039F
:1038F000BB60BB683C4BD3F8E0303B4A43F040032D
:10390000C2F8E030384BD3F8E03003F040037B607E
:103910007B68354BD3F8E030334A43F01003C2F8EC
:10392000E030314BD3F8E03003F010033B603B68EC
:10393000002244F201012D4801F066FB00224FF401
:1039400080612B4801F060FB00220221294801F030
:103950005BFB4FF40053FB6100233B6200237B625F
:1039600007F11C031946244801F09EF944F20103B3
:10397000FB6101233B6200237B620023BB6207F1F2
:103980001C031946194801F08FF94FF48063FB615D
:1039900001233B6200237B620023BB6207F11C030F
:1039A0001946134801F080F98023FB614FF4881316
:1039B0003B6200237B6207F11C0319460F4801F0AC
:1039C00073F90223FB6101233B6200237B62002326
:1039D000BB6207F11C031946064801F065F900BFF8
:1039E0003037BD4680BD00BF004402580004025875
:1039F000000C025800100258000802580018025823
:103A000080B400AF72B600BFFEE7000080B483B0A0
:103A100000AF0A4BD3F8F430084A43F00203C2F86F
:103A2000F430064BD3F8F43003F002037B607B687C
:103A300000BF0C37BD465DF8047B70470044025858
:103A400080B58EB000AF786007F1240300221A60C1
:103A50005A609A60DA601A617B681B68594A93421F
:103A600040F0AB80584BD3F8D830574A43F400436A
:103A7000C2F8D830544BD3F8D83003F400433B623B
:103A80003B6A514BD3F8D8304F4A43F48033C2F8E5
:103A9000D8304D4BD3F8D83003F48033FB61FB6949
:103AA000494BD3F8D830484A43F40033C2F8D830F1
:103AB000454BD3F8D83003F40033BB61BB69424BAC
:103AC000D3F8E030404A43F00403C2F8E0303E4B04
:103AD000D3F8E03003F004037B617B693A4BD3F801
:103AE000E030394A43F00103C2F8E030364BD3F8F6
:103AF000E03003F001033B613B69334BD3F8E03026
:103B0000314A43F00203C2F8E0302F4BD3F8E030E3
:103B100003F00203FB60FB682B4BD3F8E0302A4A2A
:103B200043F04003C2F8E030274BD3F8E03003F015
:103B30004003BB60BB6832237B620223BB6200236D
:103B4000FB6200233B630B237B6307F124031946CD
:103B50001E4801F0A9F886237B620223BB62002382
:103B6000FB6200233B630B237B6307F124031946AD
:103B7000174801F099F84FF400537B620223BB62AF
:103B80000023FB6200233B630B237B6307F12403C9
:103B90001946104801F088F84FF420537B62022345
:103BA000BB620023FB6200233B630B237B6307F1B3
:103BB00024031946084801F077F800BF3837BD469E
:103BC00080BD00BF00800240004402580008025837
:103BD00000000258000402580018025880B5BAB01C
:103BE00000AF786007F1D40300221A605A609A602F
:103BF000DA601A6107F11003C0220021184606F0AE
:103C00001BFD7B681B68274A934246D14FF0020296
:103C10004FF00003C7E904230023C7F8883007F1F9
:103C20001003184602F09CFB0346002B01D0FFF75F
:103C3000E7FE1D4BD3F8E8301B4A43F48023C2F85B
:103C4000E830194BD3F8E83003F48023FB60FB68BD
:103C5000154BD3F8E030144A43F00803C2F8E030C3
:103C6000114BD3F8E03003F00803BB60BB684FF49E
:103C70004073C7F8D4300223C7F8D8300023C7F800
:103C8000DC300023C7F8E0300723C7F8E43007F141
:103C9000D4031946054801F007F800BFE837BD46D0
:103CA00080BD00BF0048004000440258000C02588C
:103CB00080B5BAB000AF786007F1D40300221A6073
:103CC0005A609A60DA601A6107F11003C02200217D
:103CD000184606F0B1FC7B681B68304A934259D104
:103CE0004FF480224FF00003C7E904234FF4801300
:103CF000C7F8983007F11003184602F031FB03466D
:103D0000002B01D0FFF77CFE01F034FB244BD3F8ED
:103D1000E030234A43F00103C2F8E030204BD3F8EF
:103D2000E03003F00103FB60FB684FF4C853C7F8B1
:103D3000D4300223C7F8D8300023C7F8DC30002382
:103D4000C7F8E0300A23C7F8E43007F1D403194676
:103D5000144800F0A9FF4FF40073C7F8D4300023D3
:103D6000C7F8D8300023C7F8DC3007F1D403194670
:103D70000C4800F099FF0A4BD3F8D830084A43F0BA
:103D80000063C2F8D830064BD3F8D83003F0006394
:103D9000BB60BB6800BFE837BD4680BD000008407F
:103DA000004402580000025880B400AFFEE780B41F
:103DB00000AFFEE780B400AFFEE780B400AFFEE7DF
:103DC00080B400AFFEE780B400AF00BFBD465DF831
:103DD000047B704780B400AF00BFBD465DF8047B34
:103DE000704780B400AF00BFBD465DF8047B7047EC
:103DF00080B500AF00F0ECF900BF80BD80B400AF2B
:103E000001231846BD465DF8047B704780B582B03B
:103E100000AF7860396006F0F9F8034616221A60A0
:103E20004FF0FF3318460837BD4680BD80B582B0DD
:103E300000AF78604FF0FF317868FFF7E7FFFEE7EB
:103E400080B586B000AFF860B9607A6000237B610E
:103E50000AE0AFF300800146BB685A1CBA60CAB2E0
:103E60001A707B6901337B617A697B689A42F0DB67
:103E70007B6818461837BD4680BD80B586B000AF58
:103E8000F860B9607A6000237B6109E0BB685A1C66
:103E9000BA601B781846AFF300807B6901337B6101
:103EA0007A697B689A42F1DB7B6818461837BD4611
:103EB00080BD80B483B000AF78604FF0FF33184608
:103EC0000C37BD465DF8047B704780B483B000AF0B
:103ED000786039603B684FF400525A6000231846FE
:103EE0000C37BD465DF8047B704780B483B000AFEB
:103EF0007860012318460C37BD465DF8047B704797
:103F000080B485B000AFF860B9607A6000231846CD
:103F10001437BD465DF8047B7047000080B586B05D
:103F200000AF7860144A154BD31A7B617B693B6103
:103F3000134B1B68002B02D1114B124A1A60104B15
:103F40001A687B6813443A699A4207D206F05EF811
:103F500003460C221A604FF0FF3309E0084B1B6840
:103F6000FB60074B1A687B681344054A1360FB68C3
:103F700018461837BD4680BD000008240004000024
:103F8000D00C0024E80C002480B400AF374BD3F8E9
:103F90008830364A43F47003C2F88830344B1B68CB
:103FA00003F00F03062B07D8314B1B6823F00F03D8
:103FB0002F4A43F0070313602E4B1B682D4A43F032
:103FC000010313602B4B00221A612A4B1A682949FE
:103FD000294B13400B60264B1B6803F00803002B92
:103FE00007D0234B1B6823F00F03214A43F007033C
:103FF0001360204B00229A611E4B0022DA611D4B98
:1040000000221A621B4B1D4A9A621A4B1C4ADA6242
:10401000184B1C4A1A63174B00225A63154B194A56
:104020009A63144B0022DA63124B164A1A64114B3E
:1040300000225A640F4B1B680E4A23F4802313603E
:104040000C4B00221A66104B1A68104B1340B3F148
:10405000005F02D20E4B01221A600E4B43F2D202D5
:104060001A6000BFBD465DF8047B704700ED00E0BC
:1040700000200052004402587FEDF6EA00020202DE
:104080000000FF01800201010010005C0000FFFF42
:104090000881005100400052DFF834D0FFF774FF70
:1040A0000C480D490D4A002302E0D458C450043393
:1040B000C4188C42F9D30A4A0A4C002301E0136069
:1040C0000432A242FBD306F0F3F9FFF7F1F970478F
:1040D0000000082400000024600500249C9F0108C3
:1040E00020060024E80C0024FEE7000080B582B022
:1040F00000AF032000F082F901F05CFF0246154B8F
:104100009B691B0A03F00F031349CB5C03F01F03E9
:1041100022FA03F37B600F4B9B6903F00F030E4AF7
:10412000D35C03F01F037A6822FA03F30B4A13608F
:104130000B4A7B681360002000F014F80346002B44
:1041400001D0012302E0FFF761FC00231846083785
:10415000BD4680BD00440258C8850108F004002413
:10416000EC04002480B582B000AF7860154B1B785A
:10417000002B01D1012321E0134B1A68114B1B784E
:1041800019464FF47A73B3FBF1F3B2FBF3F318461D
:1041900000F059F90346002B01D001230EE07B68A3
:1041A0000F2B0AD8002279684FF0FF3000F031F968
:1041B000064A7B681360002300E001231846083795
:1041C000BD4680BDF8040024EC040024F40400245F
:1041D00080B400AF064B1B781A46064B1B6813448D
:1041E000044A136000BFBD465DF8047B704700BF02
:1041F000F8040024D40C002480B400AF034B1B68E7
:104200001846BD465DF8047B704700BFD40C0024FF
:1042100080B584B000AF7860FFF7EEFFB8607B68D0
:10422000FB60FB68B3F1FF3F05D00A4B1B781A46D1
:10423000FB681344FB6000BFFFF7DEFF0246BB686C
:10424000D31AFA689A42F7D800BF00BF1037BD46AC
:1042500080BD00BFF804002480B400AF034B1B688E
:104260001B0C1846BD465DF8047B70470010005CCF
:1042700080B483B000AF7860064B5B6823F46002C3
:1042800004497B6813434B6000BF0C37BD465DF8A3
:10429000047B70470004005880B485B000AF78609C
:1042A0007B6803F00703FB600B4BDB68BB60BA68FD
:1042B0004FF6FF031340BB60FB681A02BB681A434A
:1042C000064B1343BB60044ABB68D36000BF14377E
:1042D000BD465DF8047B704700ED00E00000FA0584
:1042E00080B400AF044BDB681B0A03F007031846D9
:1042F000BD465DF8047B704700ED00E080B483B0FC
:1043000000AF03463960FB80B7F90630002B0ADBAB
:104310003B68DAB20C49B7F906301201D2B20B444D
:1043200083F800230AE03B68DAB20849FB8803F00F
:104330000F03043B1201D2B20B441A7600BF0C37B4
:10434000BD465DF8047B704700E100E000ED00E051
:1043500080B489B000AFF860B9607A60FB6803F0A0
:104360000703FB61FB69C3F10703042B28BF042388
:10437000BB61FB690433062B02D9FB69033B00E0F8
:1043800000237B614FF0FF32BB6902FA03F3DA438B
:10439000BB681A407B699A404FF0FF317B6901FA94
:1043A00003F3D9437B680B40134318462437BD46BB
:1043B0005DF8047B7047000080B582B000AF786084
:1043C0007B68013BB3F1807F01D301230FE00A4AF0
:1043D0007B68013B53600F214FF0FF30FFF78EFFEA
:1043E000054B00229A60044B07221A6000231846EE
:1043F0000837BD4680BD00BF10E000E080B582B048
:1044000000AF78607868FFF747FF00BF0837BD4608
:1044100080BD80B586B000AF0346B9607A60FB818D
:10442000FFF75EFF78617A68B9687869FFF790FFF7
:104430000246B7F90E3011461846FFF75FFF00BF7E
:104440001837BD4680BD80B582B000AF786078680F
:10445000FFF7B2FF034618460837BD4680BD00008F
:1044600080B584B000AF78607B68002B01D1012358
:10447000CFE07B68D3F88430002B06D17B68232201
:10448000C3F884207868FFF7DBFA644BD3F8F43084
:10449000624A43F00203C2F8F430604BD3F8F430C0
:1044A00003F00203BB60BB687B681B7A002B03D15F
:1044B0000020FFF7DDFE03E04FF40000FFF7D8FE19
:1044C000574B5B687B681B6803F580531B687A68F1
:1044D000126843F0010302F580521360FFF78CFE6F
:1044E000F86011E0FFF788FE0246FB68D31AB3F5C7
:1044F000FA7F09D97B680422C3F888207B68E02210
:10450000C3F88420012384E07B681B6803F5805393
:104510001B6803F00103002BE4D1786800F086F8F3
:1045200001F0C2FE03463F4AA2FB03239A0C7B68BC
:104530001B68013AC3F8DC20786800F071FA7B68E8
:104540001B6803F58053D3F8003123F4E0137A6835
:10455000126843F4002302F58052C2F800317B68F0
:104560005B6903F00303002B09D07B680122C3F8C9
:1045700088207B68E022C3F88420012349E07B681F
:104580001B6803F58053D3F80821274B13407A6842
:10459000526951007A6812680B4302F58052C2F8E2
:1045A0000831786800F0D9FA786800F01FFB7B6862
:1045B0005B6805331B781A027B685B6804331B78E1
:1045C00019467B681B680A43C3F800237B685B6855
:1045D00003331B781A067B685B6802331B781B0465
:1045E0001A437B685B6801331B781B021A437B68A4
:1045F0005B681B7819467B681B680A43C3F8042371
:104600007B680022C3F888207B681022C3F88420CE
:10461000002318461037BD4680BD00BF0044025835
:104620000004005883DE1B430180FFFF80B584B087
:1046300000AF78607B681B68D3F80032FB60FB68D2
:1046400023F47063FB6001F02FFEB860BB681E4A64
:10465000934208D9BB681D4A934204D8FB6843F4CF
:104660000073FB6027E0BB68184A934208D9BB6817
:10467000174A934204D2FB6843F44073FB601AE08C
:10468000BB68134A934203D3BB68124A934211D9C1
:10469000BB68104A934208D9BB680F4A934204D8BA
:1046A000FB6843F48073FB6005E0FB6843F48063C0
:1046B000FB6000E000BF7B681B68FA68C3F800225B
:1046C00000BF1037BD4680BDFF2C3101BF0E160262
:1046D00000879303FFE0F5057FD1F00880B485B033
:1046E00000AF786039603B689A683B681B681A4382
:1046F0003B681B79DB061A433B681B7BDB051A43CF
:104700003B685B7B9B051A433B689B7B5B051A43BD
:104710003B68DB7B1B0513433A68127C002A02D1FD
:104720004FF4002200E0002213433A68527C002A32
:1047300002D14FF4003200E000221A433B689B7C18
:104740001B041A433B685B691A433B689B691A4325
:104750003B681B7F1B031A433B685B7FDB021343F1
:104760003A68927F002A02D14FF4806200E0002272
:104770001A433B68DB7F5B0213433A6892F82020C0
:10478000002A02D14FF4807200E000221A433B68F5
:104790005B6A1A433B6893F828301B011A433B6855
:1047A000DB6A1343FB607B681B681A68564B134037
:1047B0007A681268F9680B4313603B68DB6B5A0632
:1047C0003B6893F838301B061A433B6893F8303047
:1047D0009B041A433B6893F831305B0413433A68F7
:1047E00092F83220002A02D14FF4803200E00022F9
:1047F0001A433B685B6B1343FB607B681B685A681A
:10480000424B13407A681268F9680B4353603B6867
:1048100093F840301A023B685B6C1343FB607B6883
:104820001B68DA683A4B13407A681268F9680B43E0
:10483000D3603B6893F854305A003B681B6D1343B8
:104840003A6892F84C20002A01D1802200E0002230
:104850001A433B689B6C1B041343FB607B681B681B
:104860001A6F4FF60D7313407A681268F9680B439C
:1048700013673B6893F856301A463B6893F85530F7
:104880005B001343FB607B681B68D3F8903023F018
:1048900003017B681B68FA680A43C3F890207B68B1
:1048A0001B68D3F8003D23F072013B689A6D7B686A
:1048B0001B680A43C3F8002D3B68DB6D3A6892F829
:1048C0006020002A01D1402200E000221A433B6808
:1048D00093F861301B011A433B6893F86230DB00A8
:1048E0001343FB607B681B68D3F8303D23F07B01EA
:1048F0007B681B68FA680A43C3F8302D00BF143781
:10490000BD465DF8047B7047838004000080F8C0DA
:10491000F0FEFFFF80B485B000AF786039607B683F
:104920001B6803F580531A68384B13403A681168C6
:104930007A6812680B4302F5805213603B681B795A
:104940001A033B689B681A433B681B7BDB031343DA
:10495000FB607B681B6803F580535A682C4B13403F
:104960007A681268F9680B4302F5805253603B681D
:104970005B7B1A043B681B6A1343FB607B681B6804
:1049800003F58053D3F80021224B13407A68126854
:10499000F9680B4302F58052C2F800313B681A698E
:1049A0003B681B7D1B011A433B685B7F1B03134362
:1049B000FB607B681B6803F58053D3F80421164B1A
:1049C00013407A681268F9680B4302F58052C2F806
:1049D00004313B681B7FDA073B689B691343FB602C
:1049E0007B681B6803F58053D3F808210B4B1340F9
:1049F0007A681268F9680B4302F58052C2F80831F0
:104A000000BF1437BD465DF8047B7047FD87FFFF8C
:104A1000FE2FFFFF00C0FEFFEFEFC0FFFFFFC07FD4
:104A200080B5A4B000AF7860012387F83B30002345
:104A30003B65002387F84930002387F84B3001237A
:104A400087F83030012387F85E30012387F83A3049
:104A5000002387F85430012387F88C304FF400533B
:104A60007B64002387F864300023BB66002387F84B
:104A70008D30002387F88E304FF4C3633B660023EC
:104A800087F8383000237B63012387F83D3000230B
:104A900087F83E30002387F848300023FB67002367
:104AA0007B670023BB65002387F86C30002387F801
:104AB0008230012387F84A302023C7F88830012349
:104AC00087F84C30002387F85D304FF04053FB628D
:104AD0004FF480433B64002387F839300223C7F842
:104AE0008430002387F88030002387F8813000234A
:104AF00087F85C30012387F83C3000233B670123B3
:104B000087F8783007F12C0319467868FFF7E6FD3F
:104B100001233B7301233B610023BB60002387F823
:104B2000243000237B7500233B754FF400133B6258
:104B300000233B774FF40013BB61002387F8253037
:104B40004FF40673BB6207F1080319467868FFF754
:104B5000E1FE00BF9037BD4680BD80B485B000AF98
:104B600078600023FB601DE07B68D968FA68134613
:104B70005B001344DB000B44BB60BB6800221A607F
:104B8000BB6800225A60BB6800229A60BB680022A2
:104B9000DA60B9687B68FA68063243F82210FB686D
:104BA0000133FB60FB68032BDED97B6800229A622D
:104BB0007B681B6803F580531A460323C2F82C3127
:104BC0007B68DA687B681B6803F58053C3F814219F
:104BD0007B68DA687B681B6803F58053C3F8202183
:104BE00000BF1437BD465DF8047B704780B485B0C4
:104BF00000AF78600023FB6023E07B681969FA68E6
:104C000013465B001344DB000B44BB60BB6800220F
:104C10001A60BB6800225A60BB6800229A60BB68B9
:104C20000022DA60BB6800221A61BB6800225A6168
:104C3000B9687B68FA68123243F82210FB680133C6
:104C4000FB60FB68032BD8D97B680022DA657B68A0
:104C500000221A667B6800229A667B680022DA6668
:104C60007B6800229A657B681B6803F580531A46AF
:104C70000323C2F830317B681A697B681B6803F52F
:104C80008053C3F81C217B681B6903F148027B68D1
:104C90001B6803F58053C3F8282100BF1437BD46B5
:104CA0005DF8047B7047000080B489B000AF786085
:104CB00039600023FB61894B7B6194E13B681A6892
:104CC0000121FB6901FA03F313403B613B69002BAF
:104CD00000F086813B685B6803F00303012B05D07D
:104CE0003B685B6803F00303022B30D17B689B6851
:104CF000BB61FB695B00032202FA03F3DB43BA6981
:104D00001340BB613B68DA68FB695B0002FA03F39E
:104D1000BA691343BB617B68BA699A607B685B6858
:104D2000BB610122FB6902FA03F3DB43BA6913405A
:104D3000BB613B685B681B0903F00102FB6902FA77
:104D400003F3BA691343BB617B68BA695A603B6875
:104D50005B6803F00303032B17D07B68DB68BB6140
:104D6000FB695B00032202FA03F3DB43BA691340D9
:104D7000BB613B689A68FB695B0002FA03F3BA699E
:104D80001343BB617B68BA69DA603B685B6803F018
:104D90000303022B23D1FB69DA087B68083253F83E
:104DA0002230BB61FB6903F007039B000F2202FA6C
:104DB00003F3DB43BA691340BB613B681A69FB69C3
:104DC00003F007039B0002FA03F3BA691343BB61C4
:104DD000FB69DA087B680832B96943F822107B68FE
:104DE0001B68BB61FB695B00032202FA03F3DB4330
:104DF000BA691340BB613B685B6803F00302FB695F
:104E00005B0002FA03F3BA691343BB617B68BA69BA
:104E10001A603B685B6803F44033002B00F0E080CD
:104E20002F4BD3F8F4302E4A43F00203C2F8F4308B
:104E30002B4BD3F8F43003F00203FB60FB68294AE4
:104E4000FB699B08023352F82330BB61FB6903F016
:104E500003039B000F2202FA03F3DB43BA691340FA
:104E6000BB617B68204A934252D07B681F4A9342C1
:104E700031D07B681E4A93422BD07B681D4A9342F7
:104E800025D07B681C4A93421FD07B681B4A934203
:104E900019D07B681A4A934213D07B68194A93420F
:104EA0000DD07B68184A934207D07B68174A93421B
:104EB00001D109232DE00A232BE0082329E0072351
:104EC00027E0062325E0052323E0042321E0032334
:104ED0001FE002231DE001231BE000BF80000058FB
:104EE0000044025800040058000002580004025810
:104EF00000080258000C0258001002580014025812
:104F000000180258001C02580020025800240258C1
:104F10000023FA6902F0030292009340BA69134336
:104F2000BB613849FB699B080233BA6941F8232009
:104F30004FF0B0431B68BB613B69DB43BA69134068
:104F4000BB613B685B6803F48013002B03D0BA6934
:104F50003B691343BB614FF0B042BB6913604FF034
:104F6000B0435B68BB613B69DB43BA691340BB611B
:104F70003B685B6803F40013002B03D0BA693B69FC
:104F80001343BB614FF0B042BB6953607B695B6800
:104F9000BB613B69DB43BA691340BB613B685B683B
:104FA00003F40033002B03D0BA693B691343BB61A0
:104FB0007B69BA695A607B691B68BB613B69DB43EB
:104FC000BA691340BB613B685B6803F48033002B14
:104FD00003D0BA693B691343BB617B69BA691A6044
:104FE000FB690133FB613B681A68FB6922FA03F332
:104FF000002B7FF463AE00BF00BF2437BD465DF8D1
:10500000047B70470004005880B483B000AF786020
:105010000B467B8013467B707B78002B03D07A880D
:105020007B689A6103E07B881A047B689A6100BF01
:105030000C37BD465DF8047B704780B485B000AF87
:1050400078600B467B807B685B69FB607A88FB68D5
:1050500013401A04FB68D9437B880B401A437B68D2
:105060009A6100BF1437BD465DF8047B7047F0B508
:105070008FB00AAF78607B68002B01D1012316E165
:105080007B681B68BB607B6893F8BD34DBB2002B88
:1050900006D17B68002283F8BC247868FEF708FEFE
:1050A0007B68032283F8BD24BB68DB6B03F4807349
:1050B000002B02D17B680022DA607B681B681846EF
:1050C00004F04CF97B681B683B607E686D4606F116
:1050D00010040FCC0FC50FCC0FC594E8030085E872
:1050E0000300331D0ECB386804F0CAF80346002BCA
:1050F00005D07B68022283F8BD240123D7E07B68BA
:105100001B680021184604F03AF90023FB734AE0BB
:10511000FA7B79681346DB0013449B000B443D3354
:1051200001221A70FA7B79681346DB0013449B0056
:105130000B443C33FA7B1A70FA7BFB7B98B279689C
:105140001346DB0013449B000B44563302461A807F
:10515000FA7B79681346DB0013449B000B44403311
:1051600000221A70FA7B79681346DB0013449B0017
:105170000B44443300221A60FA7B79681346DB0043
:1051800013449B000B44483300221A60FA7B796871
:105190001346DB0013449B000B444C3300221A607F
:1051A000FB7B0133FB73FA7B7B685B689A42AFD36E
:1051B0000023FB7344E0FA7B79681346DB00134459
:1051C0009B000B4403F27D2300221A70FA7B79685E
:1051D0001346DB0013449B000B4403F51F73FA7B5B
:1051E0001A70FA7B79681346DB0013449B000B446A
:1051F00003F5207300221A70FA7B79681346DB00EE
:1052000013449B000B4403F5217300221A60FA7BC0
:1052100079681346DB0013449B000B4403F52273AB
:1052200000221A60FA7B79681346DB0013449B0066
:105230000B4403F5237300221A60FB7B0133FB73DD
:10524000FA7B7B685B689A42B5D37B681B683B60DE
:105250007E686D4606F110040FCC0FC50FCC0FC54C
:1052600094E8030085E80300331D0ECB386804F092
:10527000D3F80346002B05D07B68022283F8BD24B7
:10528000012314E07B68002283F838207B68012228
:1052900083F8BD247B685B6A012B02D1786800F03B
:1052A0000BF87B681B68184604F091FA0023184637
:1052B0001437BD46F0BD000080B485B000AF786003
:1052C0007B681B68FB607B680122C3F800257B6854
:1052D000002283F8F424FB689B6943F00062FB68BA
:1052E0009A61FB685A6D054B1343FA6853650023B6
:1052F00018461437BD465DF8047B70470300001064
:1053000080B584B000AF7860194BDB6803F004030C
:10531000042B0AD0164BDB6803F007037A689A4225
:1053200001D001231FE000231DE0114BDB6823F0B7
:1053300007020F497B681343CB60FEF75DFFF860FF
:1053400009E0FEF759FF0246FB68D31AB3F57A7FEE
:1053500001D9012307E0064B5B6803F40053B3F562
:10536000005FEED1002318461037BD4680BD00BF58
:105370000048025880B400AF054BDB68044A43F094
:105380008073D36000BFBD465DF8047B704700BFEB
:105390000048025880B58CB000AF78607B68002B65
:1053A00002D1012300F048BC7B681B6803F00103B5
:1053B000002B00F08880994B1B6903F03803FB62D7
:1053C000964B9B6ABB62FB6A102B07D0FB6A182BBB
:1053D00011D1BB6A03F00303022B0CD18F4B1B6866
:1053E00003F40033002B6DD07B685B68002B69D120
:1053F000012300F021BC7B685B68B3F5803F06D1D8
:10540000864B1B68854A43F4803313602EE07B682B
:105410005B68002B0CD1814B1B68804A23F48033DE
:1054200013607E4B1B687D4A23F4802313601DE0CC
:105430007B685B68B3F5A02F0CD1784B1B68774A6B
:1054400043F480231360754B1B68744A43F4803324
:1054500013600BE0714B1B68704A23F480331360B8
:105460006E4B1B686D4A23F4802313607B685B6876
:10547000002B13D0FEF7C0FE786208E0FEF7BCFEFA
:1054800002467B6AD31A642B01D90323D4E3634B0E
:105490001B6803F40033002BF0D014E0FEF7ACFEE1
:1054A000786208E0FEF7A8FE02467B6AD31A642BF6
:1054B00001D90323C0E3594B1B6803F40033002BCD
:1054C000F0D100E000BF7B681B6803F00203002BF3
:1054D00000F0CA80514B1B6903F038033B624F4B0D
:1054E0009B6AFB613B6A002B07D03B6A182B56D1A5
:1054F000FB6903F00303002B51D1484B1B6803F0F9
:105500000403002B05D07B68DB68002B01D101234D
:1055100092E3424B1B6823F019027B68DB683F492A
:1055200013430B60FEF768FE786208E0FEF764FE46
:1055300002467B6AD31A022B01D903237CE3374B43
:105540001B6803F00403002BF0D0FEF785FE034632
:1055500041F20302934217D87B681B69402B08D1A4
:105560002E4B5B6823F47C332C4A43F400335360A6
:105570007AE02A4B5B6823F47C327B681B691B034F
:10558000264913434B606FE0244B5B6823F0FE42D7
:105590007B681B691B06214913434B6064E07B68F1
:1055A000DB68002B47D01D4B1B6823F019027B687A
:1055B000DB681A4913430B60FEF71EFE786208E0B1
:1055C000FEF71AFE02467B6AD31A022B01D9032387
:1055D00032E3124B1B6803F00403002BF0D0FEF7FC
:1055E0003BFE034641F20302934219D87B681B69D4
:1055F000402B08D1094B5B6823F47C33074A43F402
:105600000033536030E0054B5B6823F47C327B68E9
:105610001B691B03014913434B6025E000440258FA
:105620009A4B5B6823F0FE427B681B691B06974917
:1056300013434B6018E0954B1B68944A23F0010319
:105640001360FEF7D9FD786208E0FEF7D5FD02464B
:105650007B6AD31A022B01D90323EDE28B4B1B6823
:1056600003F00403002BF0D17B681B6803F01003E8
:10567000002B00F0A980854B1B6903F03803BB6148
:10568000824B9B6A7B61BB69082B07D0BB69182BD7
:105690003AD17B6903F00303012B35D17B4B1B68A7
:1056A00003F48073002B05D07B68DB69802B01D06D
:1056B0000123C1E2FEF7D0FD034641F2030293420B
:1056C00017D87B681B6A202B08D1704B5B6823F0CE
:1056D000F8436E4A43F08043536075E06B4B5B6860
:1056E00023F0F8427B681B6A9B06684913434B60B2
:1056F0006AE0664BDB6823F07C527B681B6A1B0602
:1057000062491343CB605FE07B68DB69002B42D0CA
:105710005E4B1B685D4A43F080031360FEF76CFD2F
:10572000786208E0FEF768FD02467B6AD31A022B16
:1057300001D9032380E2554B1B6803F48073002BCF
:10574000F0D0FEF789FD034641F20302934217D8D9
:105750007B681B6A202B08D14C4B5B6823F0F84315
:105760004A4A43F0804353602EE0484B5B6823F085
:10577000F8427B681B6A9B06444913434B6023E055
:10578000424BDB6823F07C527B681B6A1B063F4957
:105790001343CB6018E03D4B1B683C4A23F0800369
:1057A0001360FEF729FD786208E0FEF725FD02464A
:1057B0007B6AD31A022B01D903233DE2334B1B68CA
:1057C00003F48073002BF0D17B681B6803F008039F
:1057D000002B36D07B685B69002B19D02B4B5B6F9D
:1057E0002A4A43F001035367FEF706FD786208E09A
:1057F000FEF702FD02467B6AD31A022B01D903236E
:105800001AE2224B5B6F03F00203002BF0D018E08A
:105810001E4B5B6F1D4A23F001035367FEF7ECFC40
:10582000786208E0FEF7E8FC02467B6AD31A022B96
:1058300001D9032300E2154B5B6F03F00203002B39
:10584000F0D17B681B6803F02003002B39D07B6804
:105850009B69002B1CD00D4B1B680C4A43F48053F2
:105860001360FEF7C9FC786208E0FEF7C5FC02464B
:105870007B6AD31A022B01D90323DDE1034B1B689A
:1058800003F40053002BF0D01BE000BF004402588B
:105890009B4B1B689A4A23F480531360FEF7ACFCC1
:1058A000786208E0FEF7A8FC02467B6AD31A022B56
:1058B00001D90323C0E1924B1B6803F40053002B72
:1058C000F0D17B681B6803F00403002B00F081809B
:1058D0008C4B1B688B4A43F480731360FEF78CFC7F
:1058E000786208E0FEF788FC02467B6AD31A642BD4
:1058F00001D90323A0E1834B1B6803F48073002BC1
:10590000F0D07B689B68012B06D17D4B1B6F7C4AD6
:1059100043F0010313672DE07B689B68002B0CD1DB
:10592000774B1B6F764A23F001031367744B1B6F91
:10593000734A23F0040313671CE07B689B68052B04
:105940000CD16F4B1B6F6E4A43F0040313676C4B13
:105950001B6F6B4A43F0010313670BE0684B1B6F2F
:10596000674A23F001031367654B1B6F644A23F0FA
:10597000040313677B689B68002B15D0FEF73CFC83
:1059800078620AE0FEF738FC02467B6AD31A41F2DD
:105990008832934201D903234EE1594B1B6F03F028
:1059A0000203002BEED014E0FEF726FC78620AE03A
:1059B000FEF722FC02467B6AD31A41F288329342F8
:1059C00001D9032338E14E4B1B6F03F00203002B78
:1059D000EED17B685B6A002B00F02D81484B1B6980
:1059E00003F03803182B00F0BD807B685B6A022B44
:1059F00040F09E80424B1B68414A23F08073136045
:105A0000FEF7FAFB786208E0FEF7F6FB02467B6AD7
:105A1000D31A022B01D903230EE1394B1B6803F083
:105A20000073002BF0D1364B9A6A374B13407A68DB
:105A3000916A7A68D26A12010A43314913438B6230
:105A40007B681B6B013BC3F308027B685B6B013B0C
:105A50005B029BB21A437B689B6B013B1B0403F404
:105A6000FE031A437B68DB6B013B1B0603F0FE431E
:105A7000234913430B63224BDB6A214A23F00103C2
:105A8000D3621F4B5A6B214B13407A68926CD20041
:105A90001B4913434B631A4BDB6A23F00C027B68F0
:105AA0001B6C17491343CB62154BDB6A23F00202D0
:105AB0007B685B6C12491343CB62114BDB6A104A63
:105AC00043F48033D3620E4BDB6A0D4A43F4003358
:105AD000D3620B4BDB6A0A4A43F48023D362084B40
